{
  "_format": "hh-sol-artifact-1",
  "contractName": "BirbNFT",
  "sourceName": "contracts/BirbNFT.sol",
  "abi": [
    {
      "inputs": [],
      "stateMutability": "nonpayable",
      "type": "constructor"
    },
    {
      "anonymous": false,
      "inputs": [
        {
          "indexed": true,
          "internalType": "address",
          "name": "owner",
          "type": "address"
        },
        {
          "indexed": true,
          "internalType": "address",
          "name": "approved",
          "type": "address"
        },
        {
          "indexed": true,
          "internalType": "uint256",
          "name": "tokenId",
          "type": "uint256"
        }
      ],
      "name": "Approval",
      "type": "event"
    },
    {
      "anonymous": false,
      "inputs": [
        {
          "indexed": true,
          "internalType": "address",
          "name": "owner",
          "type": "address"
        },
        {
          "indexed": true,
          "internalType": "address",
          "name": "operator",
          "type": "address"
        },
        {
          "indexed": false,
          "internalType": "bool",
          "name": "approved",
          "type": "bool"
        }
      ],
      "name": "ApprovalForAll",
      "type": "event"
    },
    {
      "anonymous": false,
      "inputs": [
        {
          "indexed": false,
          "internalType": "address",
          "name": "sender",
          "type": "address"
        },
        {
          "indexed": false,
          "internalType": "uint256",
          "name": "tokenId",
          "type": "uint256"
        }
      ],
      "name": "NewBirbNFTMinted",
      "type": "event"
    },
    {
      "anonymous": false,
      "inputs": [
        {
          "indexed": true,
          "internalType": "address",
          "name": "from",
          "type": "address"
        },
        {
          "indexed": true,
          "internalType": "address",
          "name": "to",
          "type": "address"
        },
        {
          "indexed": true,
          "internalType": "uint256",
          "name": "tokenId",
          "type": "uint256"
        }
      ],
      "name": "Transfer",
      "type": "event"
    },
    {
      "inputs": [
        {
          "internalType": "address",
          "name": "to",
          "type": "address"
        },
        {
          "internalType": "uint256",
          "name": "tokenId",
          "type": "uint256"
        }
      ],
      "name": "approve",
      "outputs": [],
      "stateMutability": "nonpayable",
      "type": "function"
    },
    {
      "inputs": [
        {
          "internalType": "address",
          "name": "owner",
          "type": "address"
        }
      ],
      "name": "balanceOf",
      "outputs": [
        {
          "internalType": "uint256",
          "name": "",
          "type": "uint256"
        }
      ],
      "stateMutability": "view",
      "type": "function"
    },
    {
      "inputs": [
        {
          "internalType": "uint256",
          "name": "tokenId",
          "type": "uint256"
        }
      ],
      "name": "getApproved",
      "outputs": [
        {
          "internalType": "address",
          "name": "",
          "type": "address"
        }
      ],
      "stateMutability": "view",
      "type": "function"
    },
    {
      "inputs": [
        {
          "internalType": "address",
          "name": "owner",
          "type": "address"
        },
        {
          "internalType": "address",
          "name": "operator",
          "type": "address"
        }
      ],
      "name": "isApprovedForAll",
      "outputs": [
        {
          "internalType": "bool",
          "name": "",
          "type": "bool"
        }
      ],
      "stateMutability": "view",
      "type": "function"
    },
    {
      "inputs": [],
      "name": "mintNFT",
      "outputs": [],
      "stateMutability": "nonpayable",
      "type": "function"
    },
    {
      "inputs": [],
      "name": "name",
      "outputs": [
        {
          "internalType": "string",
          "name": "",
          "type": "string"
        }
      ],
      "stateMutability": "view",
      "type": "function"
    },
    {
      "inputs": [
        {
          "internalType": "uint256",
          "name": "tokenId",
          "type": "uint256"
        }
      ],
      "name": "ownerOf",
      "outputs": [
        {
          "internalType": "address",
          "name": "",
          "type": "address"
        }
      ],
      "stateMutability": "view",
      "type": "function"
    },
    {
      "inputs": [
        {
          "internalType": "uint256",
          "name": "tokenId",
          "type": "uint256"
        }
      ],
      "name": "pickRandomSecondWord",
      "outputs": [
        {
          "internalType": "string",
          "name": "",
          "type": "string"
        }
      ],
      "stateMutability": "view",
      "type": "function"
    },
    {
      "inputs": [
        {
          "internalType": "uint256",
          "name": "tokenId",
          "type": "uint256"
        }
      ],
      "name": "pickRandomThirdWord",
      "outputs": [
        {
          "internalType": "string",
          "name": "",
          "type": "string"
        }
      ],
      "stateMutability": "view",
      "type": "function"
    },
    {
      "inputs": [
        {
          "internalType": "address",
          "name": "from",
          "type": "address"
        },
        {
          "internalType": "address",
          "name": "to",
          "type": "address"
        },
        {
          "internalType": "uint256",
          "name": "tokenId",
          "type": "uint256"
        }
      ],
      "name": "safeTransferFrom",
      "outputs": [],
      "stateMutability": "nonpayable",
      "type": "function"
    },
    {
      "inputs": [
        {
          "internalType": "address",
          "name": "from",
          "type": "address"
        },
        {
          "internalType": "address",
          "name": "to",
          "type": "address"
        },
        {
          "internalType": "uint256",
          "name": "tokenId",
          "type": "uint256"
        },
        {
          "internalType": "bytes",
          "name": "_data",
          "type": "bytes"
        }
      ],
      "name": "safeTransferFrom",
      "outputs": [],
      "stateMutability": "nonpayable",
      "type": "function"
    },
    {
      "inputs": [
        {
          "internalType": "address",
          "name": "operator",
          "type": "address"
        },
        {
          "internalType": "bool",
          "name": "approved",
          "type": "bool"
        }
      ],
      "name": "setApprovalForAll",
      "outputs": [],
      "stateMutability": "nonpayable",
      "type": "function"
    },
    {
      "inputs": [
        {
          "internalType": "bytes4",
          "name": "interfaceId",
          "type": "bytes4"
        }
      ],
      "name": "supportsInterface",
      "outputs": [
        {
          "internalType": "bool",
          "name": "",
          "type": "bool"
        }
      ],
      "stateMutability": "view",
      "type": "function"
    },
    {
      "inputs": [],
      "name": "symbol",
      "outputs": [
        {
          "internalType": "string",
          "name": "",
          "type": "string"
        }
      ],
      "stateMutability": "view",
      "type": "function"
    },
    {
      "inputs": [
        {
          "internalType": "uint256",
          "name": "tokenId",
          "type": "uint256"
        }
      ],
      "name": "tokenURI",
      "outputs": [
        {
          "internalType": "string",
          "name": "",
          "type": "string"
        }
      ],
      "stateMutability": "view",
      "type": "function"
    },
    {
      "inputs": [
        {
          "internalType": "address",
          "name": "from",
          "type": "address"
        },
        {
          "internalType": "address",
          "name": "to",
          "type": "address"
        },
        {
          "internalType": "uint256",
          "name": "tokenId",
          "type": "uint256"
        }
      ],
      "name": "transferFrom",
      "outputs": [],
      "stateMutability": "nonpayable",
      "type": "function"
    }
  ],
  "bytecode": "0x608060405260405180610160016040528061012f815260200162003db561012f9139600890805190602001906200003892919062000414565b5060405180608001604052806040518060400160405280600581526020017f436869727000000000000000000000000000000000000000000000000000000081525081526020016040518060400160405280600381526020017f536974000000000000000000000000000000000000000000000000000000000081525081526020016040518060400160405280600381526020017f466c79000000000000000000000000000000000000000000000000000000000081525081526020016040518060400160405280600381526020017f4561740000000000000000000000000000000000000000000000000000000000815250815250600990600462000140929190620004a5565b5060405180608001604052806040518060400160405280600481526020017f576f6f640000000000000000000000000000000000000000000000000000000081525081526020016040518060400160405280600581526020017f477261737300000000000000000000000000000000000000000000000000000081525081526020016040518060400160405280600681526020017f4272616e6368000000000000000000000000000000000000000000000000000081525081526020016040518060400160405280600381526020017f536b790000000000000000000000000000000000000000000000000000000000815250815250600a90600462000248929190620004a5565b503480156200025657600080fd5b506040518060400160405280600781526020017f426972624e4654000000000000000000000000000000000000000000000000008152506040518060400160405280600481526020017f42495242000000000000000000000000000000000000000000000000000000008152508160009080519060200190620002db92919062000414565b508060019080519060200190620002f492919062000414565b505050620003426040518060400160405280600b81526020017f63686972702063686972700000000000000000000000000000000000000000008152506200034860201b620010c01760201c565b620006c6565b620003e8816040516024016200035f9190620005da565b6040516020818303038152906040527f41304fac000000000000000000000000000000000000000000000000000000007bffffffffffffffffffffffffffffffffffffffffffffffffffffffff19166020820180517bffffffffffffffffffffffffffffffffffffffffffffffffffffffff8381831617835250505050620003eb60201b60201c565b50565b60008151905060006a636f6e736f6c652e6c6f679050602083016000808483855afa5050505050565b828054620004229062000650565b90600052602060002090601f01602090048101928262000446576000855562000492565b82601f106200046157805160ff191683800117855562000492565b8280016001018555821562000492579182015b828111156200049157825182559160200191906001019062000474565b5b509050620004a191906200050c565b5090565b828054828255906000526020600020908101928215620004f9579160200282015b82811115620004f8578251829080519060200190620004e792919062000414565b5091602001919060010190620004c6565b5b5090506200050891906200052b565b5090565b5b80821115620005275760008160009055506001016200050d565b5090565b5b808211156200054f576000818162000545919062000553565b506001016200052c565b5090565b508054620005619062000650565b6000825580601f1062000575575062000596565b601f0160209004906000526020600020908101906200059591906200050c565b5b50565b6000620005a682620005fe565b620005b2818562000609565b9350620005c48185602086016200061a565b620005cf81620006b5565b840191505092915050565b60006020820190508181036000830152620005f6818462000599565b905092915050565b600081519050919050565b600082825260208201905092915050565b60005b838110156200063a5780820151818401526020810190506200061d565b838111156200064a576000848401525b50505050565b600060028204905060018216806200066957607f821691505b6020821081141562000680576200067f62000686565b5b50919050565b7f4e487b7100000000000000000000000000000000000000000000000000000000600052602260045260246000fd5b6000601f19601f8301169050919050565b6136df80620006d66000396000f3fe608060405234801561001057600080fd5b50600436106101005760003560e01c806370a0823111610097578063b88d4fde11610066578063b88d4fde146102ab578063c575757a146102c7578063c87b56dd146102f7578063e985e9c51461032757610100565b806370a082311461021157806395d89b4114610241578063a22cb4651461025f578063b187301f1461027b57610100565b806314f710fe116100d357806314f710fe1461019f57806323b872dd146101a957806342842e0e146101c55780636352211e146101e157610100565b806301ffc9a71461010557806306fdde0314610135578063081812fc14610153578063095ea7b314610183575b600080fd5b61011f600480360381019061011a9190612353565b610357565b60405161012c9190612f51565b60405180910390f35b61013d610439565b60405161014a9190612f6c565b60405180910390f35b61016d600480360381019061016891906123a5565b6104cb565b60405161017a9190612ec1565b60405180910390f35b61019d60048036038101906101989190612317565b610550565b005b6101a7610668565b005b6101c360048036038101906101be9190612211565b61083f565b005b6101df60048036038101906101da9190612211565b61089f565b005b6101fb60048036038101906101f691906123a5565b6108bf565b6040516102089190612ec1565b60405180910390f35b61022b600480360381019061022691906121ac565b610971565b60405161023891906131cc565b60405180910390f35b610249610a29565b6040516102569190612f6c565b60405180910390f35b610279600480360381019061027491906122db565b610abb565b005b610295600480360381019061029091906123a5565b610c3c565b6040516102a29190612f6c565b60405180910390f35b6102c560048036038101906102c09190612260565b610d5a565b005b6102e160048036038101906102dc91906123a5565b610dbc565b6040516102ee9190612f6c565b60405180910390f35b610311600480360381019061030c91906123a5565b610eda565b60405161031e9190612f6c565b60405180910390f35b610341600480360381019061033c91906121d5565b61102c565b60405161034e9190612f51565b60405180910390f35b60007f80ac58cd000000000000000000000000000000000000000000000000000000007bffffffffffffffffffffffffffffffffffffffffffffffffffffffff1916827bffffffffffffffffffffffffffffffffffffffffffffffffffffffff1916148061042257507f5b5e139f000000000000000000000000000000000000000000000000000000007bffffffffffffffffffffffffffffffffffffffffffffffffffffffff1916827bffffffffffffffffffffffffffffffffffffffffffffffffffffffff1916145b80610432575061043182611159565b5b9050919050565b6060600080546104489061346b565b80601f01602080910402602001604051908101604052809291908181526020018280546104749061346b565b80156104c15780601f10610496576101008083540402835291602001916104c1565b820191906000526020600020905b8154815290600101906020018083116104a457829003601f168201915b5050505050905090565b60006104d6826111c3565b610515576040517f08c379a000000000000000000000000000000000000000000000000000000000815260040161050c9061312c565b60405180910390fd5b6004600083815260200190815260200160002060009054906101000a900473ffffffffffffffffffffffffffffffffffffffff169050919050565b600061055b826108bf565b90508073ffffffffffffffffffffffffffffffffffffffff168373ffffffffffffffffffffffffffffffffffffffff1614156105cc576040517f08c379a00000000000000000000000000000000000000000000000000000000081526004016105c39061318c565b60405180910390fd5b8073ffffffffffffffffffffffffffffffffffffffff166105eb61122f565b73ffffffffffffffffffffffffffffffffffffffff16148061061a57506106198161061461122f565b61102c565b5b610659576040517f08c379a00000000000000000000000000000000000000000000000000000000081526004016106509061306c565b60405180910390fd5b6106638383611237565b505050565b600061067460076112f0565b9050600061068182610c3c565b9050600061068e83610dbc565b9050600082826040516020016106a5929190612e2b565b604051602081830303815290604052905060006008826040516020016106cc929190612db8565b60405160208183030381529060405290506000610711836106ec846112fe565b6040516020016106fd929190612e5a565b6040516020818303038152906040526112fe565b90506000816040516020016107269190612e9f565b60405160208183030381529060405290506107756040518060400160405280601581526020017f0a2d2d2d2d2d2d2d2d2d2d2d2d2d2d2d2d2d2d2d2d00000000000000000000008152506110c0565b61077e816110c0565b6107bc6040518060400160405280601581526020017f2d2d2d2d2d2d2d2d2d2d2d2d2d2d2d2d2d2d2d2d0a00000000000000000000008152506110c0565b6107c633886114bc565b6107d087826114da565b6107da600761154e565b6107fd604051806060016040528060298152602001613681602991398833611564565b7f526f1eebd153eee0d320a9c0fab8423202cb804028114455a41f4b2dda09aa2d338860405161082e929190612f28565b60405180910390a150505050505050565b61085061084a61122f565b82611603565b61088f576040517f08c379a0000000000000000000000000000000000000000000000000000000008152600401610886906131ac565b60405180910390fd5b61089a8383836116e1565b505050565b6108ba83838360405180602001604052806000815250610d5a565b505050565b6000806002600084815260200190815260200160002060009054906101000a900473ffffffffffffffffffffffffffffffffffffffff169050600073ffffffffffffffffffffffffffffffffffffffff168173ffffffffffffffffffffffffffffffffffffffff161415610968576040517f08c379a000000000000000000000000000000000000000000000000000000000815260040161095f906130ac565b60405180910390fd5b80915050919050565b60008073ffffffffffffffffffffffffffffffffffffffff168273ffffffffffffffffffffffffffffffffffffffff1614156109e2576040517f08c379a00000000000000000000000000000000000000000000000000000000081526004016109d99061308c565b60405180910390fd5b600360008373ffffffffffffffffffffffffffffffffffffffff1673ffffffffffffffffffffffffffffffffffffffff168152602001908152602001600020549050919050565b606060018054610a389061346b565b80601f0160208091040260200160405190810160405280929190818152602001828054610a649061346b565b8015610ab15780601f10610a8657610100808354040283529160200191610ab1565b820191906000526020600020905b815481529060010190602001808311610a9457829003601f168201915b5050505050905090565b610ac361122f565b73ffffffffffffffffffffffffffffffffffffffff168273ffffffffffffffffffffffffffffffffffffffff161415610b31576040517f08c379a0000000000000000000000000000000000000000000000000000000008152600401610b289061302c565b60405180910390fd5b8060056000610b3e61122f565b73ffffffffffffffffffffffffffffffffffffffff1673ffffffffffffffffffffffffffffffffffffffff16815260200190815260200160002060008473ffffffffffffffffffffffffffffffffffffffff1673ffffffffffffffffffffffffffffffffffffffff16815260200190815260200160002060006101000a81548160ff0219169083151502179055508173ffffffffffffffffffffffffffffffffffffffff16610beb61122f565b73ffffffffffffffffffffffffffffffffffffffff167f17307eab39ab6107e8899845ad3d59bd9653f200f220920489ca2b5937696c3183604051610c309190612f51565b60405180910390a35050565b60606000610c70610c4c8461193d565b604051602001610c5c9190612e09565b604051602081830303815290604052611aea565b905060098054905081610c8391906134e6565b905060098181548110610cbf577f4e487b7100000000000000000000000000000000000000000000000000000000600052603260045260246000fd5b906000526020600020018054610cd49061346b565b80601f0160208091040260200160405190810160405280929190818152602001828054610d009061346b565b8015610d4d5780601f10610d2257610100808354040283529160200191610d4d565b820191906000526020600020905b815481529060010190602001808311610d3057829003601f168201915b5050505050915050919050565b610d6b610d6561122f565b83611603565b610daa576040517f08c379a0000000000000000000000000000000000000000000000000000000008152600401610da1906131ac565b60405180910390fd5b610db684848484611b1d565b50505050565b60606000610df0610dcc8461193d565b604051602001610ddc9190612de7565b604051602081830303815290604052611aea565b9050600a8054905081610e0391906134e6565b9050600a8181548110610e3f577f4e487b7100000000000000000000000000000000000000000000000000000000600052603260045260246000fd5b906000526020600020018054610e549061346b565b80601f0160208091040260200160405190810160405280929190818152602001828054610e809061346b565b8015610ecd5780601f10610ea257610100808354040283529160200191610ecd565b820191906000526020600020905b815481529060010190602001808311610eb057829003601f168201915b5050505050915050919050565b6060610ee5826111c3565b610f24576040517f08c379a0000000000000000000000000000000000000000000000000000000008152600401610f1b9061310c565b60405180910390fd5b6000600660008481526020019081526020016000208054610f449061346b565b80601f0160208091040260200160405190810160405280929190818152602001828054610f709061346b565b8015610fbd5780601f10610f9257610100808354040283529160200191610fbd565b820191906000526020600020905b815481529060010190602001808311610fa057829003601f168201915b505050505090506000610fce611b79565b9050600081511415610fe4578192505050611027565b600082511115611019578082604051602001611001929190612d94565b60405160208183030381529060405292505050611027565b61102284611b90565b925050505b919050565b6000600560008473ffffffffffffffffffffffffffffffffffffffff1673ffffffffffffffffffffffffffffffffffffffff16815260200190815260200160002060008373ffffffffffffffffffffffffffffffffffffffff1673ffffffffffffffffffffffffffffffffffffffff16815260200190815260200160002060009054906101000a900460ff16905092915050565b611156816040516024016110d49190612f6c565b6040516020818303038152906040527f41304fac000000000000000000000000000000000000000000000000000000007bffffffffffffffffffffffffffffffffffffffffffffffffffffffff19166020820180517bffffffffffffffffffffffffffffffffffffffffffffffffffffffff8381831617835250505050611c37565b50565b60007f01ffc9a7000000000000000000000000000000000000000000000000000000007bffffffffffffffffffffffffffffffffffffffffffffffffffffffff1916827bffffffffffffffffffffffffffffffffffffffffffffffffffffffff1916149050919050565b60008073ffffffffffffffffffffffffffffffffffffffff166002600084815260200190815260200160002060009054906101000a900473ffffffffffffffffffffffffffffffffffffffff1673ffffffffffffffffffffffffffffffffffffffff1614159050919050565b600033905090565b816004600083815260200190815260200160002060006101000a81548173ffffffffffffffffffffffffffffffffffffffff021916908373ffffffffffffffffffffffffffffffffffffffff160217905550808273ffffffffffffffffffffffffffffffffffffffff166112aa836108bf565b73ffffffffffffffffffffffffffffffffffffffff167f8c5be1e5ebec7d5bd14f71427d1e84f3dd0314c0f7b2291e5b200ac8c7c3b92560405160405180910390a45050565b600081600001549050919050565b6060600082519050600081141561132757604051806020016040528060008152509150506114b7565b6000600360028361133891906132a0565b61134291906132f6565b600461134e9190613327565b9050600060208261135f91906132a0565b67ffffffffffffffff81111561139e577f4e487b7100000000000000000000000000000000000000000000000000000000600052604160045260246000fd5b6040519080825280601f01601f1916602001820160405280156113d05781602001600182028036833780820191505090505b5090506000604051806060016040528060408152602001613641604091399050600181016020830160005b868110156114745760038101905062ffffff818a015116603f8160121c168401518060081b905060ff603f83600c1c1686015116810190508060081b905060ff603f8360061c1686015116810190508060081b905060ff603f831686015116810190508060e01b905080845260048401935050506113fb565b50600386066001811461148e576002811461149e576114a9565b613d3d60f01b60028303526114a9565b603d60f81b60018303525b508484525050819450505050505b919050565b6114d6828260405180602001604052806000815250611c60565b5050565b6114e3826111c3565b611522576040517f08c379a0000000000000000000000000000000000000000000000000000000008152600401611519906130cc565b60405180910390fd5b80600660008481526020019081526020016000209080519060200190611549929190612038565b505050565b6001816000016000828254019250508190555050565b6115fe83838360405160240161157c93929190612f8e565b6040516020818303038152906040527fe3849f79000000000000000000000000000000000000000000000000000000007bffffffffffffffffffffffffffffffffffffffffffffffffffffffff19166020820180517bffffffffffffffffffffffffffffffffffffffffffffffffffffffff8381831617835250505050611c37565b505050565b600061160e826111c3565b61164d576040517f08c379a00000000000000000000000000000000000000000000000000000000081526004016116449061304c565b60405180910390fd5b6000611658836108bf565b90508073ffffffffffffffffffffffffffffffffffffffff168473ffffffffffffffffffffffffffffffffffffffff1614806116c757508373ffffffffffffffffffffffffffffffffffffffff166116af846104cb565b73ffffffffffffffffffffffffffffffffffffffff16145b806116d857506116d7818561102c565b5b91505092915050565b8273ffffffffffffffffffffffffffffffffffffffff16611701826108bf565b73ffffffffffffffffffffffffffffffffffffffff1614611757576040517f08c379a000000000000000000000000000000000000000000000000000000000815260040161174e9061314c565b60405180910390fd5b600073ffffffffffffffffffffffffffffffffffffffff168273ffffffffffffffffffffffffffffffffffffffff1614156117c7576040517f08c379a00000000000000000000000000000000000000000000000000000000081526004016117be9061300c565b60405180910390fd5b6117d2838383611cbb565b6117dd600082611237565b6001600360008573ffffffffffffffffffffffffffffffffffffffff1673ffffffffffffffffffffffffffffffffffffffff168152602001908152602001600020600082825461182d9190613381565b925050819055506001600360008473ffffffffffffffffffffffffffffffffffffffff1673ffffffffffffffffffffffffffffffffffffffff168152602001908152602001600020600082825461188491906132a0565b92505081905550816002600083815260200190815260200160002060006101000a81548173ffffffffffffffffffffffffffffffffffffffff021916908373ffffffffffffffffffffffffffffffffffffffff160217905550808273ffffffffffffffffffffffffffffffffffffffff168473ffffffffffffffffffffffffffffffffffffffff167fddf252ad1be2c89b69c2b068fc378daa952ba7f163c4a11628f55a4df523b3ef60405160405180910390a4505050565b60606000821415611985576040518060400160405280600181526020017f30000000000000000000000000000000000000000000000000000000000000008152509050611ae5565b600082905060005b600082146119b75780806119a09061349d565b915050600a826119b091906132f6565b915061198d565b60008167ffffffffffffffff8111156119f9577f4e487b7100000000000000000000000000000000000000000000000000000000600052604160045260246000fd5b6040519080825280601f01601f191660200182016040528015611a2b5781602001600182028036833780820191505090505b5090505b60008514611ade57600182611a449190613381565b9150600a85611a5391906134e6565b6030611a5f91906132a0565b60f81b818381518110611a9b577f4e487b7100000000000000000000000000000000000000000000000000000000600052603260045260246000fd5b60200101907effffffffffffffffffffffffffffffffffffffffffffffffffffffffffffff1916908160001a905350600a85611ad791906132f6565b9450611a2f565b8093505050505b919050565b600081604051602001611afd9190612d7d565b6040516020818303038152906040528051906020012060001c9050919050565b611b288484846116e1565b611b3484848484611cc0565b611b73576040517f08c379a0000000000000000000000000000000000000000000000000000000008152600401611b6a90612fcc565b60405180910390fd5b50505050565b606060405180602001604052806000815250905090565b6060611b9b826111c3565b611bda576040517f08c379a0000000000000000000000000000000000000000000000000000000008152600401611bd19061316c565b60405180910390fd5b6000611be4611b79565b90506000815111611c045760405180602001604052806000815250611c2f565b80611c0e8461193d565b604051602001611c1f929190612d94565b6040516020818303038152906040525b915050919050565b60008151905060006a636f6e736f6c652e6c6f679050602083016000808483855afa5050505050565b611c6a8383611e57565b611c776000848484611cc0565b611cb6576040517f08c379a0000000000000000000000000000000000000000000000000000000008152600401611cad90612fcc565b60405180910390fd5b505050565b505050565b6000611ce18473ffffffffffffffffffffffffffffffffffffffff16612025565b15611e4a578373ffffffffffffffffffffffffffffffffffffffff1663150b7a02611d0a61122f565b8786866040518563ffffffff1660e01b8152600401611d2c9493929190612edc565b602060405180830381600087803b158015611d4657600080fd5b505af1925050508015611d7757506040513d601f19601f82011682018060405250810190611d74919061237c565b60015b611dfa573d8060008114611da7576040519150601f19603f3d011682016040523d82523d6000602084013e611dac565b606091505b50600081511415611df2576040517f08c379a0000000000000000000000000000000000000000000000000000000008152600401611de990612fcc565b60405180910390fd5b805181602001fd5b63150b7a0260e01b7bffffffffffffffffffffffffffffffffffffffffffffffffffffffff1916817bffffffffffffffffffffffffffffffffffffffffffffffffffffffff191614915050611e4f565b600190505b949350505050565b600073ffffffffffffffffffffffffffffffffffffffff168273ffffffffffffffffffffffffffffffffffffffff161415611ec7576040517f08c379a0000000000000000000000000000000000000000000000000000000008152600401611ebe906130ec565b60405180910390fd5b611ed0816111c3565b15611f10576040517f08c379a0000000000000000000000000000000000000000000000000000000008152600401611f0790612fec565b60405180910390fd5b611f1c60008383611cbb565b6001600360008473ffffffffffffffffffffffffffffffffffffffff1673ffffffffffffffffffffffffffffffffffffffff1681526020019081526020016000206000828254611f6c91906132a0565b92505081905550816002600083815260200190815260200160002060006101000a81548173ffffffffffffffffffffffffffffffffffffffff021916908373ffffffffffffffffffffffffffffffffffffffff160217905550808273ffffffffffffffffffffffffffffffffffffffff16600073ffffffffffffffffffffffffffffffffffffffff167fddf252ad1be2c89b69c2b068fc378daa952ba7f163c4a11628f55a4df523b3ef60405160405180910390a45050565b600080823b905060008111915050919050565b8280546120449061346b565b90600052602060002090601f01602090048101928261206657600085556120ad565b82601f1061207f57805160ff19168380011785556120ad565b828001600101855582156120ad579182015b828111156120ac578251825591602001919060010190612091565b5b5090506120ba91906120be565b5090565b5b808211156120d75760008160009055506001016120bf565b5090565b60006120ee6120e984613218565b6131e7565b90508281526020810184848401111561210657600080fd5b612111848285613429565b509392505050565b600081359050612128816135e4565b92915050565b60008135905061213d816135fb565b92915050565b60008135905061215281613612565b92915050565b60008151905061216781613612565b92915050565b600082601f83011261217e57600080fd5b813561218e8482602086016120db565b91505092915050565b6000813590506121a681613629565b92915050565b6000602082840312156121be57600080fd5b60006121cc84828501612119565b91505092915050565b600080604083850312156121e857600080fd5b60006121f685828601612119565b925050602061220785828601612119565b9150509250929050565b60008060006060848603121561222657600080fd5b600061223486828701612119565b935050602061224586828701612119565b925050604061225686828701612197565b9150509250925092565b6000806000806080858703121561227657600080fd5b600061228487828801612119565b945050602061229587828801612119565b93505060406122a687828801612197565b925050606085013567ffffffffffffffff8111156122c357600080fd5b6122cf8782880161216d565b91505092959194509250565b600080604083850312156122ee57600080fd5b60006122fc85828601612119565b925050602061230d8582860161212e565b9150509250929050565b6000806040838503121561232a57600080fd5b600061233885828601612119565b925050602061234985828601612197565b9150509250929050565b60006020828403121561236557600080fd5b600061237384828501612143565b91505092915050565b60006020828403121561238e57600080fd5b600061239c84828501612158565b91505092915050565b6000602082840312156123b757600080fd5b60006123c584828501612197565b91505092915050565b6123d7816133b5565b82525050565b6123e6816133c7565b82525050565b60006123f78261325d565b6124018185613273565b9350612411818560208601613438565b61241a816135d3565b840191505092915050565b600061243082613268565b61243a8185613284565b935061244a818560208601613438565b612453816135d3565b840191505092915050565b600061246982613268565b6124738185613295565b9350612483818560208601613438565b80840191505092915050565b6000815461249c8161346b565b6124a68186613295565b945060018216600081146124c157600181146124d257612505565b60ff19831686528186019350612505565b6124db85613248565b60005b838110156124fd578154818901526001820191506020810190506124de565b838801955050505b50505092915050565b600061251b603283613284565b91507f4552433732313a207472616e7366657220746f206e6f6e20455243373231526560008301527f63656976657220696d706c656d656e74657200000000000000000000000000006020830152604082019050919050565b6000612581601c83613284565b91507f4552433732313a20746f6b656e20616c7265616479206d696e746564000000006000830152602082019050919050565b60006125c1600a83613295565b91507f54484952445f574f5244000000000000000000000000000000000000000000006000830152600a82019050919050565b6000612601602483613284565b91507f4552433732313a207472616e7366657220746f20746865207a65726f2061646460008301527f72657373000000000000000000000000000000000000000000000000000000006020830152604082019050919050565b6000612667601983613284565b91507f4552433732313a20617070726f766520746f2063616c6c6572000000000000006000830152602082019050919050565b60006126a7606383613295565b91507f222c20226465736372697074696f6e223a20224120686967686c79206163636c60008301527f61696d656420636f6c6c656374696f6e206f6620737175617265732e222c202260208301527f696d616765223a2022646174613a696d6167652f7376672b786d6c3b6261736560408301527f36342c00000000000000000000000000000000000000000000000000000000006060830152606382019050919050565b6000612759600b83613295565b91507f5345434f4e445f574f52440000000000000000000000000000000000000000006000830152600b82019050919050565b6000612799602c83613284565b91507f4552433732313a206f70657261746f7220717565727920666f72206e6f6e657860008301527f697374656e7420746f6b656e00000000000000000000000000000000000000006020830152604082019050919050565b60006127ff600d83613295565b91507f3c2f746578743e3c2f7376673e000000000000000000000000000000000000006000830152600d82019050919050565b600061283f603883613284565b91507f4552433732313a20617070726f76652063616c6c6572206973206e6f74206f7760008301527f6e6572206e6f7220617070726f76656420666f7220616c6c00000000000000006020830152604082019050919050565b60006128a5602a83613284565b91507f4552433732313a2062616c616e636520717565727920666f7220746865207a6560008301527f726f2061646472657373000000000000000000000000000000000000000000006020830152604082019050919050565b600061290b602983613284565b91507f4552433732313a206f776e657220717565727920666f72206e6f6e657869737460008301527f656e7420746f6b656e00000000000000000000000000000000000000000000006020830152604082019050919050565b6000612971602e83613284565b91507f45524337323155524953746f726167653a2055524920736574206f66206e6f6e60008301527f6578697374656e7420746f6b656e0000000000000000000000000000000000006020830152604082019050919050565b60006129d7600283613295565b91507f227d0000000000000000000000000000000000000000000000000000000000006000830152600282019050919050565b6000612a17602083613284565b91507f4552433732313a206d696e7420746f20746865207a65726f20616464726573736000830152602082019050919050565b6000612a57603183613284565b91507f45524337323155524953746f726167653a2055524920717565727920666f722060008301527f6e6f6e6578697374656e7420746f6b656e0000000000000000000000000000006020830152604082019050919050565b6000612abd602c83613284565b91507f4552433732313a20617070726f76656420717565727920666f72206e6f6e657860008301527f697374656e7420746f6b656e00000000000000000000000000000000000000006020830152604082019050919050565b6000612b23602983613284565b91507f4552433732313a207472616e73666572206f6620746f6b656e2074686174206960008301527f73206e6f74206f776e00000000000000000000000000000000000000000000006020830152604082019050919050565b6000612b89602f83613284565b91507f4552433732314d657461646174613a2055524920717565727920666f72206e6f60008301527f6e6578697374656e7420746f6b656e00000000000000000000000000000000006020830152604082019050919050565b6000612bef600483613295565b91507f42697262000000000000000000000000000000000000000000000000000000006000830152600482019050919050565b6000612c2f600a83613295565b91507f7b226e616d65223a2022000000000000000000000000000000000000000000006000830152600a82019050919050565b6000612c6f602183613284565b91507f4552433732313a20617070726f76616c20746f2063757272656e74206f776e6560008301527f72000000000000000000000000000000000000000000000000000000000000006020830152604082019050919050565b6000612cd5601d83613295565b91507f646174613a6170706c69636174696f6e2f6a736f6e3b6261736536342c0000006000830152601d82019050919050565b6000612d15603183613284565b91507f4552433732313a207472616e736665722063616c6c6572206973206e6f74206f60008301527f776e6572206e6f7220617070726f7665640000000000000000000000000000006020830152604082019050919050565b612d778161341f565b82525050565b6000612d89828461245e565b915081905092915050565b6000612da0828561245e565b9150612dac828461245e565b91508190509392505050565b6000612dc4828561248f565b9150612dd0828461245e565b9150612ddb826127f2565b91508190509392505050565b6000612df2826125b4565b9150612dfe828461245e565b915081905092915050565b6000612e148261274c565b9150612e20828461245e565b915081905092915050565b6000612e3682612be2565b9150612e42828561245e565b9150612e4e828461245e565b91508190509392505050565b6000612e6582612c22565b9150612e71828561245e565b9150612e7c8261269a565b9150612e88828461245e565b9150612e93826129ca565b91508190509392505050565b6000612eaa82612cc8565b9150612eb6828461245e565b915081905092915050565b6000602082019050612ed660008301846123ce565b92915050565b6000608082019050612ef160008301876123ce565b612efe60208301866123ce565b612f0b6040830185612d6e565b8181036060830152612f1d81846123ec565b905095945050505050565b6000604082019050612f3d60008301856123ce565b612f4a6020830184612d6e565b9392505050565b6000602082019050612f6660008301846123dd565b92915050565b60006020820190508181036000830152612f868184612425565b905092915050565b60006060820190508181036000830152612fa88186612425565b9050612fb76020830185612d6e565b612fc460408301846123ce565b949350505050565b60006020820190508181036000830152612fe58161250e565b9050919050565b6000602082019050818103600083015261300581612574565b9050919050565b60006020820190508181036000830152613025816125f4565b9050919050565b600060208201905081810360008301526130458161265a565b9050919050565b600060208201905081810360008301526130658161278c565b9050919050565b6000602082019050818103600083015261308581612832565b9050919050565b600060208201905081810360008301526130a581612898565b9050919050565b600060208201905081810360008301526130c5816128fe565b9050919050565b600060208201905081810360008301526130e581612964565b9050919050565b6000602082019050818103600083015261310581612a0a565b9050919050565b6000602082019050818103600083015261312581612a4a565b9050919050565b6000602082019050818103600083015261314581612ab0565b9050919050565b6000602082019050818103600083015261316581612b16565b9050919050565b6000602082019050818103600083015261318581612b7c565b9050919050565b600060208201905081810360008301526131a581612c62565b9050919050565b600060208201905081810360008301526131c581612d08565b9050919050565b60006020820190506131e16000830184612d6e565b92915050565b6000604051905081810181811067ffffffffffffffff8211171561320e5761320d6135a4565b5b8060405250919050565b600067ffffffffffffffff821115613233576132326135a4565b5b601f19601f8301169050602081019050919050565b60008190508160005260206000209050919050565b600081519050919050565b600081519050919050565b600082825260208201905092915050565b600082825260208201905092915050565b600081905092915050565b60006132ab8261341f565b91506132b68361341f565b9250827fffffffffffffffffffffffffffffffffffffffffffffffffffffffffffffffff038211156132eb576132ea613517565b5b828201905092915050565b60006133018261341f565b915061330c8361341f565b92508261331c5761331b613546565b5b828204905092915050565b60006133328261341f565b915061333d8361341f565b9250817fffffffffffffffffffffffffffffffffffffffffffffffffffffffffffffffff048311821515161561337657613375613517565b5b828202905092915050565b600061338c8261341f565b91506133978361341f565b9250828210156133aa576133a9613517565b5b828203905092915050565b60006133c0826133ff565b9050919050565b60008115159050919050565b60007fffffffff0000000000000000000000000000000000000000000000000000000082169050919050565b600073ffffffffffffffffffffffffffffffffffffffff82169050919050565b6000819050919050565b82818337600083830152505050565b60005b8381101561345657808201518184015260208101905061343b565b83811115613465576000848401525b50505050565b6000600282049050600182168061348357607f821691505b6020821081141561349757613496613575565b5b50919050565b60006134a88261341f565b91507fffffffffffffffffffffffffffffffffffffffffffffffffffffffffffffffff8214156134db576134da613517565b5b600182019050919050565b60006134f18261341f565b91506134fc8361341f565b92508261350c5761350b613546565b5b828206905092915050565b7f4e487b7100000000000000000000000000000000000000000000000000000000600052601160045260246000fd5b7f4e487b7100000000000000000000000000000000000000000000000000000000600052601260045260246000fd5b7f4e487b7100000000000000000000000000000000000000000000000000000000600052602260045260246000fd5b7f4e487b7100000000000000000000000000000000000000000000000000000000600052604160045260246000fd5b6000601f19601f8301169050919050565b6135ed816133b5565b81146135f857600080fd5b50565b613604816133c7565b811461360f57600080fd5b50565b61361b816133d3565b811461362657600080fd5b50565b6136328161341f565b811461363d57600080fd5b5056fe4142434445464748494a4b4c4d4e4f505152535455565758595a6162636465666768696a6b6c6d6e6f707172737475767778797a303132333435363738392b2f416e20426972624e465420772f20494420257320686173206265656e206d696e74656420746f202573a2646970667358221220b12031d05a839ac947d1c6042ca4077ee4ec91368d58101a3488368350bff93c64736f6c634300080000333c73766720786d6c6e733d27687474703a2f2f7777772e77332e6f72672f323030302f73766727207072657365727665417370656374526174696f3d27784d696e594d696e206d656574272076696577426f783d273020302033353020333530273e3c7374796c653e2e62617365207b2066696c6c3a2077686974653b20666f6e742d66616d696c793a2073657269663b20666f6e742d73697a653a20323470783b207d3c2f7374796c653e3c726563742077696474683d273130302527206865696768743d2731303025272066696c6c3d27626c61636b27202f3e3c7465787420783d273530252720793d273530252720636c6173733d27626173652720646f6d696e616e742d626173656c696e653d276d6964646c652720746578742d616e63686f723d276d6964646c65273e",
  "linkReferences": {},
  "deployedLinkReferences": {}
}